{
  "contractName": "Academic",
  "abi": [
    {
      "inputs": [],
      "stateMutability": "nonpayable",
      "type": "constructor"
    },
    {
      "inputs": [],
      "name": "etapa",
      "outputs": [
        {
          "internalType": "enum Periodo",
          "name": "",
          "type": "uint8"
        }
      ],
      "stateMutability": "view",
      "type": "function"
    },
    {
      "inputs": [
        {
          "internalType": "address",
          "name": "alunoContractAddr",
          "type": "address"
        }
      ],
      "name": "setAlunoContractAddress",
      "outputs": [],
      "stateMutability": "nonpayable",
      "type": "function"
    },
    {
      "inputs": [
        {
          "internalType": "address",
          "name": "disciplinaContractAddr",
          "type": "address"
        }
      ],
      "name": "setDisciplinaContractAddress",
      "outputs": [],
      "stateMutability": "nonpayable",
      "type": "function"
    },
    {
      "inputs": [
        {
          "internalType": "address",
          "name": "academicTokenAddr",
          "type": "address"
        }
      ],
      "name": "setAcademicTokenAddress",
      "outputs": [],
      "stateMutability": "nonpayable",
      "type": "function"
    },
    {
      "inputs": [],
      "name": "abrirLancamentoNota",
      "outputs": [],
      "stateMutability": "nonpayable",
      "type": "function"
    },
    {
      "inputs": [
        {
          "internalType": "uint256",
          "name": "alunoId",
          "type": "uint256"
        },
        {
          "internalType": "uint256",
          "name": "disciplinaId",
          "type": "uint256"
        }
      ],
      "name": "inserirAlunoInDisciplina",
      "outputs": [],
      "stateMutability": "nonpayable",
      "type": "function"
    },
    {
      "inputs": [
        {
          "internalType": "uint256",
          "name": "alunoId",
          "type": "uint256"
        },
        {
          "internalType": "uint256",
          "name": "disciplinaId",
          "type": "uint256"
        },
        {
          "internalType": "uint8",
          "name": "nota",
          "type": "uint8"
        }
      ],
      "name": "inserirNota",
      "outputs": [],
      "stateMutability": "nonpayable",
      "type": "function"
    },
    {
      "inputs": [
        {
          "internalType": "uint256",
          "name": "disciplinaId",
          "type": "uint256"
        }
      ],
      "name": "listarNotasDisciplina",
      "outputs": [
        {
          "components": [
            {
              "internalType": "uint256",
              "name": "id",
              "type": "uint256"
            },
            {
              "internalType": "string",
              "name": "nome",
              "type": "string"
            }
          ],
          "internalType": "struct Aluno[]",
          "name": "",
          "type": "tuple[]"
        },
        {
          "internalType": "uint8[]",
          "name": "",
          "type": "uint8[]"
        }
      ],
      "stateMutability": "view",
      "type": "function"
    }
  ],
  "bytecode": "0x608060405234801561001057600080fd5b506000805460ff1916905560048054336001600160a01b0319909116179055610fd38061003e6000396000f3fe608060405234801561001057600080fd5b50600436106100885760003560e01c8063b90fcab51161005b578063b90fcab5146100e0578063c3c93b37146100f3578063da5251b614610114578063dfecf9ea1461012757600080fd5b80631dec8cc41461008d57806323c3fb0f146100b05780632ca4d4bd146100ba578063a2052113146100cd575b600080fd5b60005461009a9060ff1681565b6040516100a79190610b5b565b60405180910390f35b6100b861013a565b005b6100b86100c8366004610b83565b61017c565b6100b86100db366004610ba5565b610471565b6100b86100ee366004610bfc565b6107e3565b610106610101366004610c20565b61082f565b6040516100a7929190610c9b565b6100b8610122366004610bfc565b610aad565b6100b8610135366004610bfc565b610af9565b6004546001600160a01b0316331461016d5760405162461bcd60e51b815260040161016490610d3a565b60405180910390fd5b6000805460ff19166001179055565b6005546040516303feec1b60e21b81526004810184905283916000916001600160a01b0390911690630ffbb06c90602401600060405180830381865afa1580156101ca573d6000803e3d6000fd5b505050506040513d6000823e601f3d908101601f191682016040526101f29190810190610e00565b90506000805460ff16600181111561020c5761020c610b45565b146102675760405162461bcd60e51b815260206004820152602560248201527f466f726120646f20706572696f646f20646520696e7363726963616f20646520604482015264616c756e6f60d81b6064820152608401610164565b6005546040516303feec1b60e21b8152600481018690526001600160a01b0390911690630ffbb06c90602401600060405180830381865afa1580156102b0573d6000803e3d6000fd5b505050506040513d6000823e601f3d908101601f191682016040526102d89190810190610e00565b60200151516000036103225760405162461bcd60e51b8152602060048201526013602482015272416c756e6f206e616f206578697374656e746560681b6044820152606401610164565b60065460405163f6847b5b60e01b8152600481018590526001600160a01b039091169063f6847b5b90602401600060405180830381865afa15801561036b573d6000803e3d6000fd5b505050506040513d6000823e601f3d908101601f191682016040526103939190810190610e8d565b60200151516000036103b75760405162461bcd60e51b815260040161016490610f31565b600084815260036020908152604080832086845290915290205460ff161561042d5760405162461bcd60e51b8152602060048201526024808201527f416c756e6f206a61206573746120696e73637269746f206e61206469736369706044820152636c696e6160e01b6064820152608401610164565b50506000818152600260209081526040808320805460018181018355918552838520018690559483526003825280832093835292905220805460ff19169091179055565b60065460405163f6847b5b60e01b81526004810184905283916000916001600160a01b039091169063f6847b5b90602401600060405180830381865afa1580156104bf573d6000803e3d6000fd5b505050506040513d6000823e601f3d908101601f191682016040526104e79190810190610e8d565b60408101519091506001600160a01b03166105445760405162461bcd60e51b815260206004820152601860248201527f4469736369706c696e612073656d2070726f666573736f7200000000000000006044820152606401610164565b80604001516001600160a01b0316336001600160a01b0316146105795760405162461bcd60e51b815260040161016490610d3a565b600160005460ff16600181111561059257610592610b45565b146105ee5760405162461bcd60e51b815260206004820152602660248201527f466f726120646f20706572696f646f206465206c616e63616d656e746f206465604482015265206e6f74617360d01b6064820152608401610164565b6005546040516303feec1b60e21b8152600481018790526001600160a01b0390911690630ffbb06c90602401600060405180830381865afa158015610637573d6000803e3d6000fd5b505050506040513d6000823e601f3d908101601f1916820160405261065f9190810190610e00565b60200151516000036106a95760405162461bcd60e51b8152602060048201526013602482015272416c756e6f206e616f206578697374656e746560681b6044820152606401610164565b60065460405163f6847b5b60e01b8152600481018690526001600160a01b039091169063f6847b5b90602401600060405180830381865afa1580156106f2573d6000803e3d6000fd5b505050506040513d6000823e601f3d908101601f1916820160405261071a9190810190610e8d565b602001515160000361073e5760405162461bcd60e51b815260040161016490610f31565b600085815260036020908152604080832087845290915290205460ff166107b55760405162461bcd60e51b815260206004820152602560248201527f416c756e6f206e616f206573746120696e73637269746f206e61206469736369604482015264706c696e6160d81b6064820152608401610164565b505060009283526001602090815260408085209385529290529120805460ff191660ff909216919091179055565b6004546001600160a01b0316331461080d5760405162461bcd60e51b815260040161016490610d3a565b600780546001600160a01b0319166001600160a01b0392909216919091179055565b60065460405163f6847b5b60e01b81526004810183905260609182916001600160a01b039091169063f6847b5b90602401600060405180830381865afa15801561087d573d6000803e3d6000fd5b505050506040513d6000823e601f3d908101601f191682016040526108a59190810190610e8d565b60200151516000036108c95760405162461bcd60e51b815260040161016490610f31565b600083815260026020526040812054908167ffffffffffffffff8111156108f2576108f2610d62565b60405190808252806020026020018201604052801561093857816020015b6040805180820190915260008152606060208201528152602001906001900390816109105790505b50905060008267ffffffffffffffff81111561095657610956610d62565b60405190808252806020026020018201604052801561097f578160200160208202803683370190505b50905060005b83811015610aa15760008781526002602052604081208054839081106109ad576109ad610f60565b6000918252602090912001546005546040516303feec1b60e21b8152600481018390529192506001600160a01b031690630ffbb06c90602401600060405180830381865afa158015610a03573d6000803e3d6000fd5b505050506040513d6000823e601f3d908101601f19168201604052610a2b9190810190610e00565b848381518110610a3d57610a3d610f60565b60209081029190910181019190915260008281526001825260408082208b83529092522054835160ff90911690849084908110610a7c57610a7c610f60565b60ff909216602092830291909101909101525080610a9981610f76565b915050610985565b50909590945092505050565b6004546001600160a01b03163314610ad75760405162461bcd60e51b815260040161016490610d3a565b600680546001600160a01b0319166001600160a01b0392909216919091179055565b6004546001600160a01b03163314610b235760405162461bcd60e51b815260040161016490610d3a565b600580546001600160a01b0319166001600160a01b0392909216919091179055565b634e487b7160e01b600052602160045260246000fd5b6020810160028310610b7d57634e487b7160e01b600052602160045260246000fd5b91905290565b60008060408385031215610b9657600080fd5b50508035926020909101359150565b600080600060608486031215610bba57600080fd5b8335925060208401359150604084013560ff81168114610bd957600080fd5b809150509250925092565b6001600160a01b0381168114610bf957600080fd5b50565b600060208284031215610c0e57600080fd5b8135610c1981610be4565b9392505050565b600060208284031215610c3257600080fd5b5035919050565b60005b83811015610c54578181015183820152602001610c3c565b50506000910152565b600081518084526020808501945080840160005b83811015610c9057815160ff1687529582019590820190600101610c71565b509495945050505050565b60006040808301818452808651808352606092508286019150828160051b8701016020808a0160005b84811015610d1a57898403605f190186528151805185528301518385018990528051898601819052610cfb818a8801848801610c39565b96840196601f01601f1916949094018701935090820190600101610cc4565b505087820390880152610d2d8189610c5d565b9998505050505050505050565b6020808252600e908201526d4e616f206175746f72697a61646f60901b604082015260600190565b634e487b7160e01b600052604160045260246000fd5b600082601f830112610d8957600080fd5b815167ffffffffffffffff80821115610da457610da4610d62565b604051601f8301601f19908116603f01168101908282118183101715610dcc57610dcc610d62565b81604052838152866020858801011115610de557600080fd5b610df6846020830160208901610c39565b9695505050505050565b600060208284031215610e1257600080fd5b815167ffffffffffffffff80821115610e2a57600080fd5b9083019060408286031215610e3e57600080fd5b604051604081018181108382111715610e5957610e59610d62565b60405282518152602083015182811115610e7257600080fd5b610e7e87828601610d78565b60208301525095945050505050565b600060208284031215610e9f57600080fd5b815167ffffffffffffffff80821115610eb757600080fd5b9083019060608286031215610ecb57600080fd5b604051606081018181108382111715610ee657610ee6610d62565b60405282518152602083015182811115610eff57600080fd5b610f0b87828601610d78565b60208301525060408301519250610f2183610be4565b6040810192909252509392505050565b6020808252601590820152744469736369706c696e61206e616f2065786973746560581b604082015260600190565b634e487b7160e01b600052603260045260246000fd5b600060018201610f9657634e487b7160e01b600052601160045260246000fd5b506001019056fea26469706673582212208e669d2fcf67f92582fe0028884c4315d8b245a81270c53a2f07a878d6dd2d5564736f6c63430008110033",
  "immutableReferences": {},
  "source": "// SPDX-License-Identifier: GPL-3.0\n\npragma solidity >=0.7.0 <0.9.0;\n\nimport \"./AcademicTypes.sol\";\nimport \"./IAlunoContract.sol\";\nimport \"./IDisciplinaContract.sol\";\nimport \"./AcademicToken.sol\";\n\n/**\n * @title Academic\n * @dev Academic system contract\n */\ncontract Academic {\n\n    Periodo public etapa;\n\n    mapping(uint => mapping(uint => uint8)) alunoIdToDisciplinaIdToNota;\n    mapping(uint => uint[]) alunosByDisciplina;\n\n    mapping(uint => mapping(uint => bool)) alunoExistsInDisciplina;\n\n    address owner;\n    address _alunoContractAddr;\n    address _disciplinaContractAddr;\n\n    address _academicTokenAddr;\n\n    constructor(){\n        etapa = Periodo.INSCRICAO_ALUNOS;\n        owner = msg.sender;\n    }\n\n    modifier onlyOwner(){\n        require(msg.sender == owner, \"Nao autorizado\");\n        _;\n    }\n\n    modifier onlyProfessor(uint disciplinaId){\n        Disciplina memory d = IDisciplinaContract(_disciplinaContractAddr).getDisciplinaById(disciplinaId);\n        require(d.professor != address(0), \"Disciplina sem professor\");\n        require(msg.sender == d.professor, \"Nao autorizado\");\n        _;\n    }\n\n    modifier onlyAluno(uint alunoId) {\n        Aluno memory a = IAlunoContract(_alunoContractAddr).getAlunoById(alunoId);\n        // require(a.wallet != address(0), \"Aluno nao existente\");\n        // require(msg.sender == a.wallet, \"Nao autorizado\");\n        _;\n    }\n\n    function setAlunoContractAddress(address alunoContractAddr) public onlyOwner {\n        _alunoContractAddr = alunoContractAddr;\n    }\n\n    function setDisciplinaContractAddress(address disciplinaContractAddr) public onlyOwner {\n        _disciplinaContractAddr = disciplinaContractAddr;\n    }\n\n    function setAcademicTokenAddress(address academicTokenAddr) public onlyOwner {\n        _academicTokenAddr = academicTokenAddr;\n    }\n\n    function abrirLancamentoNota() onlyOwner public {\n        etapa = Periodo.LANCAMENTO_NOTAS;\n    }\n\n    function inserirAlunoInDisciplina(uint alunoId, uint disciplinaId) onlyAluno(alunoId) public {\n        require(etapa == Periodo.INSCRICAO_ALUNOS, \"Fora do periodo de inscricao de aluno\");\n        require(bytes(IAlunoContract(_alunoContractAddr).getAlunoById(alunoId).nome).length != 0, \"Aluno nao existente\");\n        require(bytes(IDisciplinaContract(_disciplinaContractAddr).getDisciplinaById(disciplinaId).nome).length != 0, \"Disciplina nao existe\");\n        require(!alunoExistsInDisciplina[alunoId][disciplinaId], \"Aluno ja esta inscrito na disciplina\");\n\n        //AcademicToken(_academicTokenAddr).transfer(owner, 1);\n\n        alunosByDisciplina[disciplinaId].push(alunoId);\n        alunoExistsInDisciplina[alunoId][disciplinaId] = true;\n    }\n\n    function inserirNota(uint alunoId, uint disciplinaId, uint8 nota) onlyProfessor(disciplinaId) public {\n        require(etapa == Periodo.LANCAMENTO_NOTAS, \"Fora do periodo de lancamento de notas\");\n        require(bytes(IAlunoContract(_alunoContractAddr).getAlunoById(alunoId).nome).length != 0, \"Aluno nao existente\");\n        require(bytes(IDisciplinaContract(_disciplinaContractAddr).getDisciplinaById(disciplinaId).nome).length != 0, \"Disciplina nao existe\");\n        require(alunoExistsInDisciplina[alunoId][disciplinaId], \"Aluno nao esta inscrito na disciplina\");\n\n        alunoIdToDisciplinaIdToNota[alunoId][disciplinaId] = nota;\n    }\n\n    function listarNotasDisciplina(uint disciplinaId) view public returns(Aluno[] memory, uint8[] memory){\n        require(bytes(IDisciplinaContract(_disciplinaContractAddr).getDisciplinaById(disciplinaId).nome).length != 0, \"Disciplina nao existe\");\n\n        uint numAlunos = alunosByDisciplina[disciplinaId].length;\n\n        Aluno[] memory alunos = new Aluno[](numAlunos);\n        uint8[] memory notas = new uint8[](numAlunos);\n\n        for(uint i = 0; i < numAlunos; i++){\n            uint alunoId = alunosByDisciplina[disciplinaId][i];\n            \n            alunos[i] = IAlunoContract(_alunoContractAddr).getAlunoById(alunoId);\n            notas[i] = alunoIdToDisciplinaIdToNota[alunoId][disciplinaId];\n        }\n        return (alunos, notas);\n    }\n}",
  "sourcePath": "/home/fxavier/cefet-rj/blck-2022.2/BlockChainCEFET/frontend/academic_dapp/contracts/Academic.sol",
  "compiler": {
    "name": "solc",
    "version": "0.8.17+commit.8df45f5f.Emscripten.clang"
  },
  "schemaVersion": "3.4.11",
  "updatedAt": "2022-12-20T21:47:04.169Z",
  "devdoc": {
    "details": "Academic system contract",
    "kind": "dev",
    "methods": {},
    "title": "Academic",
    "version": 1
  },
  "userdoc": {
    "kind": "user",
    "methods": {},
    "version": 1
  }
}