{
  "contractName": "Academic",
  "abi": [
    {
      "inputs": [],
      "stateMutability": "nonpayable",
      "type": "constructor"
    },
    {
      "inputs": [],
      "name": "etapa",
      "outputs": [
        {
          "internalType": "enum Periodo",
          "name": "",
          "type": "uint8"
        }
      ],
      "stateMutability": "view",
      "type": "function"
    },
    {
      "inputs": [
        {
          "internalType": "address",
          "name": "alunoContractAddr",
          "type": "address"
        }
      ],
      "name": "setAlunoContractAddress",
      "outputs": [],
      "stateMutability": "nonpayable",
      "type": "function"
    },
    {
      "inputs": [
        {
          "internalType": "address",
          "name": "disciplinaContractAddr",
          "type": "address"
        }
      ],
      "name": "setDisciplinaContractAddress",
      "outputs": [],
      "stateMutability": "nonpayable",
      "type": "function"
    },
    {
      "inputs": [
        {
          "internalType": "address",
          "name": "academicTokenAddr",
          "type": "address"
        }
      ],
      "name": "setAcademicTokenAddress",
      "outputs": [],
      "stateMutability": "nonpayable",
      "type": "function"
    },
    {
      "inputs": [],
      "name": "abrirLancamentoNota",
      "outputs": [],
      "stateMutability": "nonpayable",
      "type": "function"
    },
    {
      "inputs": [
        {
          "internalType": "uint256",
          "name": "alunoId",
          "type": "uint256"
        },
        {
          "internalType": "uint256",
          "name": "disciplinaId",
          "type": "uint256"
        }
      ],
      "name": "inserirAlunoInDisciplina",
      "outputs": [],
      "stateMutability": "nonpayable",
      "type": "function"
    },
    {
      "inputs": [
        {
          "internalType": "uint256",
          "name": "alunoId",
          "type": "uint256"
        },
        {
          "internalType": "uint256",
          "name": "disciplinaId",
          "type": "uint256"
        },
        {
          "internalType": "uint8",
          "name": "nota",
          "type": "uint8"
        }
      ],
      "name": "inserirNota",
      "outputs": [],
      "stateMutability": "nonpayable",
      "type": "function"
    },
    {
      "inputs": [
        {
          "internalType": "uint256",
          "name": "disciplinaId",
          "type": "uint256"
        }
      ],
      "name": "listarNotasDisciplina",
      "outputs": [
        {
          "components": [
            {
              "internalType": "uint256",
              "name": "id",
              "type": "uint256"
            },
            {
              "internalType": "string",
              "name": "nome",
              "type": "string"
            },
            {
              "internalType": "address",
              "name": "wallet",
              "type": "address"
            }
          ],
          "internalType": "struct Aluno[]",
          "name": "",
          "type": "tuple[]"
        },
        {
          "internalType": "uint8[]",
          "name": "",
          "type": "uint8[]"
        }
      ],
      "stateMutability": "view",
      "type": "function"
    }
  ],
  "bytecode": "0x608060405234801561001057600080fd5b506000805460ff1916905560048054336001600160a01b0319909116179055610fe38061003e6000396000f3fe608060405234801561001057600080fd5b50600436106100885760003560e01c8063b90fcab51161005b578063b90fcab5146100e0578063c3c93b37146100f3578063da5251b614610114578063dfecf9ea1461012757600080fd5b80631dec8cc41461008d57806323c3fb0f146100b05780632ca4d4bd146100ba578063a2052113146100cd575b600080fd5b60005461009a9060ff1681565b6040516100a79190610b87565b60405180910390f35b6100b861013a565b005b6100b86100c8366004610baf565b61017c565b6100b86100db366004610bd1565b6104ab565b6100b86100ee366004610c28565b6107f7565b610106610101366004610c4c565b610843565b6040516100a7929190610cc7565b6100b8610122366004610c28565b610ad9565b6100b8610135366004610c28565b610b25565b6004546001600160a01b0316331461016d5760405162461bcd60e51b815260040161016490610d76565b60405180910390fd5b6000805460ff19166001179055565b6005546040516303feec1b60e21b81526004810184905283916000916001600160a01b0390911690630ffbb06c90602401600060405180830381865afa1580156101ca573d6000803e3d6000fd5b505050506040513d6000823e601f3d908101601f191682016040526101f29190810190610ed7565b60408101519091506001600160a01b031661021f5760405162461bcd60e51b815260040161016490610f14565b80604001516001600160a01b0316336001600160a01b0316146102545760405162461bcd60e51b815260040161016490610d76565b6000805460ff16600181111561026c5761026c610b71565b146102c75760405162461bcd60e51b815260206004820152602560248201527f466f726120646f20706572696f646f20646520696e7363726963616f20646520604482015264616c756e6f60d81b6064820152608401610164565b6005546040516303feec1b60e21b8152600481018690526001600160a01b0390911690630ffbb06c90602401600060405180830381865afa158015610310573d6000803e3d6000fd5b505050506040513d6000823e601f3d908101601f191682016040526103389190810190610ed7565b602001515160000361035c5760405162461bcd60e51b815260040161016490610f14565b60065460405163f6847b5b60e01b8152600481018590526001600160a01b039091169063f6847b5b90602401600060405180830381865afa1580156103a5573d6000803e3d6000fd5b505050506040513d6000823e601f3d908101601f191682016040526103cd9190810190610ed7565b60200151516000036103f15760405162461bcd60e51b815260040161016490610f41565b600084815260036020908152604080832086845290915290205460ff16156104675760405162461bcd60e51b8152602060048201526024808201527f416c756e6f206a61206573746120696e73637269746f206e61206469736369706044820152636c696e6160e01b6064820152608401610164565b50506000818152600260209081526040808320805460018181018355918552838520018690559483526003825280832093835292905220805460ff19169091179055565b60065460405163f6847b5b60e01b81526004810184905283916000916001600160a01b039091169063f6847b5b90602401600060405180830381865afa1580156104f9573d6000803e3d6000fd5b505050506040513d6000823e601f3d908101601f191682016040526105219190810190610ed7565b60408101519091506001600160a01b031661057e5760405162461bcd60e51b815260206004820152601860248201527f4469736369706c696e612073656d2070726f666573736f7200000000000000006044820152606401610164565b80604001516001600160a01b0316336001600160a01b0316146105b35760405162461bcd60e51b815260040161016490610d76565b600160005460ff1660018111156105cc576105cc610b71565b146106285760405162461bcd60e51b815260206004820152602660248201527f466f726120646f20706572696f646f206465206c616e63616d656e746f206465604482015265206e6f74617360d01b6064820152608401610164565b6005546040516303feec1b60e21b8152600481018790526001600160a01b0390911690630ffbb06c90602401600060405180830381865afa158015610671573d6000803e3d6000fd5b505050506040513d6000823e601f3d908101601f191682016040526106999190810190610ed7565b60200151516000036106bd5760405162461bcd60e51b815260040161016490610f14565b60065460405163f6847b5b60e01b8152600481018690526001600160a01b039091169063f6847b5b90602401600060405180830381865afa158015610706573d6000803e3d6000fd5b505050506040513d6000823e601f3d908101601f1916820160405261072e9190810190610ed7565b60200151516000036107525760405162461bcd60e51b815260040161016490610f41565b600085815260036020908152604080832087845290915290205460ff166107c95760405162461bcd60e51b815260206004820152602560248201527f416c756e6f206e616f206573746120696e73637269746f206e61206469736369604482015264706c696e6160d81b6064820152608401610164565b505060009283526001602090815260408085209385529290529120805460ff191660ff909216919091179055565b6004546001600160a01b031633146108215760405162461bcd60e51b815260040161016490610d76565b600780546001600160a01b0319166001600160a01b0392909216919091179055565b60065460405163f6847b5b60e01b81526004810183905260609182916001600160a01b039091169063f6847b5b90602401600060405180830381865afa158015610891573d6000803e3d6000fd5b505050506040513d6000823e601f3d908101601f191682016040526108b99190810190610ed7565b60200151516000036108dd5760405162461bcd60e51b815260040161016490610f41565b600083815260026020526040812054908167ffffffffffffffff81111561090657610906610d9e565b60405190808252806020026020018201604052801561096457816020015b6109516040518060600160405280600081526020016060815260200160006001600160a01b031681525090565b8152602001906001900390816109245790505b50905060008267ffffffffffffffff81111561098257610982610d9e565b6040519080825280602002602001820160405280156109ab578160200160208202803683370190505b50905060005b83811015610acd5760008781526002602052604081208054839081106109d9576109d9610f70565b6000918252602090912001546005546040516303feec1b60e21b8152600481018390529192506001600160a01b031690630ffbb06c90602401600060405180830381865afa158015610a2f573d6000803e3d6000fd5b505050506040513d6000823e601f3d908101601f19168201604052610a579190810190610ed7565b848381518110610a6957610a69610f70565b60209081029190910181019190915260008281526001825260408082208b83529092522054835160ff90911690849084908110610aa857610aa8610f70565b60ff909216602092830291909101909101525080610ac581610f86565b9150506109b1565b50909590945092505050565b6004546001600160a01b03163314610b035760405162461bcd60e51b815260040161016490610d76565b600680546001600160a01b0319166001600160a01b0392909216919091179055565b6004546001600160a01b03163314610b4f5760405162461bcd60e51b815260040161016490610d76565b600580546001600160a01b0319166001600160a01b0392909216919091179055565b634e487b7160e01b600052602160045260246000fd5b6020810160028310610ba957634e487b7160e01b600052602160045260246000fd5b91905290565b60008060408385031215610bc257600080fd5b50508035926020909101359150565b600080600060608486031215610be657600080fd5b8335925060208401359150604084013560ff81168114610c0557600080fd5b809150509250925092565b6001600160a01b0381168114610c2557600080fd5b50565b600060208284031215610c3a57600080fd5b8135610c4581610c10565b9392505050565b600060208284031215610c5e57600080fd5b5035919050565b60005b83811015610c80578181015183820152602001610c68565b50506000910152565b600081518084526020808501945080840160005b83811015610cbc57815160ff1687529582019590820190600101610c9d565b509495945050505050565b60006040808301818452808651808352606092508286019150828160051b8701016020808a0160005b84811015610d5657605f198a85030186528151805185528381015188858701528051808a8801526080610d2882828a01898601610c65565b928b01516001600160a01b0316878c015297850197601f01601f191690950101935090820190600101610cf0565b505087820390880152610d698189610c89565b9998505050505050505050565b6020808252600e908201526d4e616f206175746f72697a61646f60901b604082015260600190565b634e487b7160e01b600052604160045260246000fd5b6040516060810167ffffffffffffffff81118282101715610dd757610dd7610d9e565b60405290565b604051601f8201601f1916810167ffffffffffffffff81118282101715610e0657610e06610d9e565b604052919050565b8051610e1981610c10565b919050565b600060608284031215610e3057600080fd5b610e38610db4565b90508151815260208083015167ffffffffffffffff80821115610e5a57600080fd5b818501915085601f830112610e6e57600080fd5b815181811115610e8057610e80610d9e565b610e92601f8201601f19168501610ddd565b91508082528684828501011115610ea857600080fd5b610eb781858401868601610c65565b508083850152505050610ecc60408301610e0e565b604082015292915050565b600060208284031215610ee957600080fd5b815167ffffffffffffffff811115610f0057600080fd5b610f0c84828501610e1e565b949350505050565b602080825260139082015272416c756e6f206e616f206578697374656e746560681b604082015260600190565b6020808252601590820152744469736369706c696e61206e616f2065786973746560581b604082015260600190565b634e487b7160e01b600052603260045260246000fd5b600060018201610fa657634e487b7160e01b600052601160045260246000fd5b506001019056fea2646970667358221220ded76dfabbde95082b4dfbeb9ee5f9e4448c71bec51138010a74e9c0fb3f4a5864736f6c63430008110033",
  "immutableReferences": {},
  "source": "// SPDX-License-Identifier: GPL-3.0\n\npragma solidity >=0.7.0 <0.9.0;\n\nimport \"./AcademicTypes.sol\";\nimport \"./IAlunoContract.sol\";\nimport \"./IDisciplinaContract.sol\";\nimport \"./AcademicToken.sol\";\n\n/**\n * @title Academic\n * @dev Academic system contract\n */\ncontract Academic {\n\n    Periodo public etapa;\n\n    mapping(uint => mapping(uint => uint8)) alunoIdToDisciplinaIdToNota;\n    mapping(uint => uint[]) alunosByDisciplina;\n\n    mapping(uint => mapping(uint => bool)) alunoExistsInDisciplina;\n\n    address owner;\n    address _alunoContractAddr;\n    address _disciplinaContractAddr;\n\n    address _academicTokenAddr;\n\n    constructor(){\n        etapa = Periodo.INSCRICAO_ALUNOS;\n        owner = msg.sender;\n    }\n\n    modifier onlyOwner(){\n        require(msg.sender == owner, \"Nao autorizado\");\n        _;\n    }\n\n    modifier onlyProfessor(uint disciplinaId){\n        Disciplina memory d = IDisciplinaContract(_disciplinaContractAddr).getDisciplinaById(disciplinaId);\n        require(d.professor != address(0), \"Disciplina sem professor\");\n        require(msg.sender == d.professor, \"Nao autorizado\");\n        _;\n    }\n\n    modifier onlyAluno(uint alunoId) {\n        Aluno memory a = IAlunoContract(_alunoContractAddr).getAlunoById(alunoId);\n        require(a.wallet != address(0), \"Aluno nao existente\");\n        require(msg.sender == a.wallet, \"Nao autorizado\");\n        _;\n    }\n\n    function setAlunoContractAddress(address alunoContractAddr) public onlyOwner {\n        _alunoContractAddr = alunoContractAddr;\n    }\n\n    function setDisciplinaContractAddress(address disciplinaContractAddr) public onlyOwner {\n        _disciplinaContractAddr = disciplinaContractAddr;\n    }\n\n    function setAcademicTokenAddress(address academicTokenAddr) public onlyOwner {\n        _academicTokenAddr = academicTokenAddr;\n    }\n\n    function abrirLancamentoNota() onlyOwner public {\n        etapa = Periodo.LANCAMENTO_NOTAS;\n    }\n\n    function inserirAlunoInDisciplina(uint alunoId, uint disciplinaId) onlyAluno(alunoId) public {\n        require(etapa == Periodo.INSCRICAO_ALUNOS, \"Fora do periodo de inscricao de aluno\");\n        require(bytes(IAlunoContract(_alunoContractAddr).getAlunoById(alunoId).nome).length != 0, \"Aluno nao existente\");\n        require(bytes(IDisciplinaContract(_disciplinaContractAddr).getDisciplinaById(disciplinaId).nome).length != 0, \"Disciplina nao existe\");\n        require(!alunoExistsInDisciplina[alunoId][disciplinaId], \"Aluno ja esta inscrito na disciplina\");\n\n        //AcademicToken(_academicTokenAddr).transfer(owner, 1);\n\n        alunosByDisciplina[disciplinaId].push(alunoId);\n        alunoExistsInDisciplina[alunoId][disciplinaId] = true;\n    }\n\n    function inserirNota(uint alunoId, uint disciplinaId, uint8 nota) onlyProfessor(disciplinaId) public {\n        require(etapa == Periodo.LANCAMENTO_NOTAS, \"Fora do periodo de lancamento de notas\");\n        require(bytes(IAlunoContract(_alunoContractAddr).getAlunoById(alunoId).nome).length != 0, \"Aluno nao existente\");\n        require(bytes(IDisciplinaContract(_disciplinaContractAddr).getDisciplinaById(disciplinaId).nome).length != 0, \"Disciplina nao existe\");\n        require(alunoExistsInDisciplina[alunoId][disciplinaId], \"Aluno nao esta inscrito na disciplina\");\n\n        alunoIdToDisciplinaIdToNota[alunoId][disciplinaId] = nota;\n    }\n\n    function listarNotasDisciplina(uint disciplinaId) view public returns(Aluno[] memory, uint8[] memory){\n        require(bytes(IDisciplinaContract(_disciplinaContractAddr).getDisciplinaById(disciplinaId).nome).length != 0, \"Disciplina nao existe\");\n\n        uint numAlunos = alunosByDisciplina[disciplinaId].length;\n\n        Aluno[] memory alunos = new Aluno[](numAlunos);\n        uint8[] memory notas = new uint8[](numAlunos);\n\n        for(uint i = 0; i < numAlunos; i++){\n            uint alunoId = alunosByDisciplina[disciplinaId][i];\n            \n            alunos[i] = IAlunoContract(_alunoContractAddr).getAlunoById(alunoId);\n            notas[i] = alunoIdToDisciplinaIdToNota[alunoId][disciplinaId];\n        }\n        return (alunos, notas);\n    }\n}",
  "sourcePath": "/home/fxavier/cefet-rj/blck-2022.2/BlockChainCEFET/frontend/academic_dapp/contracts/Academic.sol",
  "compiler": {
    "name": "solc",
    "version": "0.8.17+commit.8df45f5f.Emscripten.clang"
  },
  "schemaVersion": "3.4.11",
  "updatedAt": "2022-12-19T15:43:51.269Z",
  "devdoc": {
    "details": "Academic system contract",
    "kind": "dev",
    "methods": {},
    "title": "Academic",
    "version": 1
  },
  "userdoc": {
    "kind": "user",
    "methods": {},
    "version": 1
  }
}