{
  "contractName": "AlunoContract",
  "abi": [
    {
      "inputs": [
        {
          "internalType": "address",
          "name": "academicContractAddr",
          "type": "address"
        },
        {
          "internalType": "address",
          "name": "academicTokenAddr",
          "type": "address"
        }
      ],
      "stateMutability": "nonpayable",
      "type": "constructor"
    },
    {
      "inputs": [
        {
          "internalType": "uint256",
          "name": "id",
          "type": "uint256"
        }
      ],
      "name": "getAlunoById",
      "outputs": [
        {
          "components": [
            {
              "internalType": "uint256",
              "name": "id",
              "type": "uint256"
            },
            {
              "internalType": "string",
              "name": "nome",
              "type": "string"
            },
            {
              "internalType": "address",
              "name": "wallet",
              "type": "address"
            }
          ],
          "internalType": "struct Aluno",
          "name": "",
          "type": "tuple"
        }
      ],
      "stateMutability": "view",
      "type": "function",
      "constant": true
    },
    {
      "inputs": [
        {
          "internalType": "uint256",
          "name": "id",
          "type": "uint256"
        },
        {
          "internalType": "string",
          "name": "nome",
          "type": "string"
        },
        {
          "internalType": "address",
          "name": "wallet",
          "type": "address"
        }
      ],
      "name": "inserirAluno",
      "outputs": [],
      "stateMutability": "nonpayable",
      "type": "function"
    }
  ],
  "bytecode": "0x608060405234801561001057600080fd5b506040516108cc3803806108cc83398101604081905261002f9161008c565b600280546001600160a01b039384166001600160a01b03199182161790915560038054929093169181169190911790915560018054909116331790556100bf565b80516001600160a01b038116811461008757600080fd5b919050565b6000806040838503121561009f57600080fd5b6100a883610070565b91506100b660208401610070565b90509250929050565b6107fe806100ce6000396000f3fe608060405234801561001057600080fd5b50600436106100365760003560e01c80630ffbb06c1461003b57806334c5106814610064575b600080fd5b61004e610049366004610494565b610079565b60405161005b91906104ad565b60405180910390f35b610077610072366004610554565b610174565b005b6100a66040518060600160405280600081526020016060815260200160006001600160a01b031681525090565b600082815260208181526040918290208251606081019093528054835260018101805491928401916100d79061061f565b80601f01602080910402602001604051908101604052809291908181526020018280546101039061061f565b80156101505780601f1061012557610100808354040283529160200191610150565b820191906000526020600020905b81548152906001019060200180831161013357829003601f168201915b5050509183525050600291909101546001600160a01b031660209091015292915050565b6001546001600160a01b031633146101c45760405162461bcd60e51b815260206004820152600e60248201526d4e616f206175746f72697a61646f60901b60448201526064015b60405180910390fd5b6002546040805163077b233160e21b815290516000926001600160a01b031691631dec8cc49160048083019260209291908290030181865afa15801561020e573d6000803e3d6000fd5b505050506040513d601f19601f82011682018060405250810190610232919061066f565b600181111561024357610243610659565b1461029e5760405162461bcd60e51b815260206004820152602560248201527f466f726120646f20706572696f646f20646520696e7363726963616f20646520604482015264616c756e6f60d81b60648201526084016101bb565b6102a783610079565b6020015151156102eb5760405162461bcd60e51b815260206004820152600f60248201526e416c756e6f206a612065786973746560881b60448201526064016101bb565b815160000361033c5760405162461bcd60e51b815260206004820152601960248201527f4e6f6d65206e616f20706f64652065737461722076617a696f0000000000000060448201526064016101bb565b6001600160a01b0381166103a25760405162461bcd60e51b815260206004820152602760248201527f456e64657265636f206461206361727465697261206e616f20706f6465207365604482015266722076617a696f60c81b60648201526084016101bb565b6040805160608101825284815260208082018581526001600160a01b0385168385015260008781529182905292902081518155915190919060018201906103e990826106e6565b5060409182015160029190910180546001600160a01b0319166001600160a01b0392831617905560035460015492516323b872dd60e01b815292821660048401528382166024840152670de0b6b3a7640000604484015216906323b872dd906064016020604051808303816000875af115801561046a573d6000803e3d6000fd5b505050506040513d601f19601f8201168201806040525081019061048e91906107a6565b50505050565b6000602082840312156104a657600080fd5b5035919050565b600060208083528351818401528084015160606040850152805180608086015260005b818110156104ec5782810184015186820160a0015283016104d0565b50600085820160a0015260408601516001600160a01b03811660608701529250601f01601f19169390930160a001949350505050565b634e487b7160e01b600052604160045260246000fd5b80356001600160a01b038116811461054f57600080fd5b919050565b60008060006060848603121561056957600080fd5b83359250602084013567ffffffffffffffff8082111561058857600080fd5b818601915086601f83011261059c57600080fd5b8135818111156105ae576105ae610522565b604051601f8201601f19908116603f011681019083821181831017156105d6576105d6610522565b816040528281528960208487010111156105ef57600080fd5b82602086016020830137600060208483010152809650505050505061061660408501610538565b90509250925092565b600181811c9082168061063357607f821691505b60208210810361065357634e487b7160e01b600052602260045260246000fd5b50919050565b634e487b7160e01b600052602160045260246000fd5b60006020828403121561068157600080fd5b81516002811061069057600080fd5b9392505050565b601f8211156106e157600081815260208120601f850160051c810160208610156106be5750805b601f850160051c820191505b818110156106dd578281556001016106ca565b5050505b505050565b815167ffffffffffffffff81111561070057610700610522565b6107148161070e845461061f565b84610697565b602080601f83116001811461074957600084156107315750858301515b600019600386901b1c1916600185901b1785556106dd565b600085815260208120601f198616915b8281101561077857888601518255948401946001909101908401610759565b50858210156107965787850151600019600388901b60f8161c191681555b5050505050600190811b01905550565b6000602082840312156107b857600080fd5b8151801515811461069057600080fdfea2646970667358221220472909c8eb5a44428405c1e1da8c9338c28f7e811d14029d51d73834adbca58764736f6c63430008110033",
  "immutableReferences": {},
  "source": "// SPDX-License-Identifier: GPL-3.0\n\npragma solidity >=0.7.0 <0.9.0;\n\nimport \"./AcademicTypes.sol\";\nimport \"./Academic.sol\";\nimport \"./IAlunoContract.sol\";\nimport \"./AcademicToken.sol\";\n\ncontract AlunoContract is IAlunoContract{\n\n    mapping(uint => Aluno) alunoById;\n\n    address owner;\n\n    address private _academicContractAddr; \n    address private _academicTokenAddr;\n\n    modifier onlyOwner(){\n        require(msg.sender == owner, \"Nao autorizado\");\n        _;\n    }\n\n    constructor(address academicContractAddr, address academicTokenAddr){\n        _academicContractAddr = academicContractAddr;\n        _academicTokenAddr = academicTokenAddr;\n        owner = msg.sender;\n    }\n\n    function getAlunoById(uint id) public view override returns (Aluno memory){\n        return alunoById[id];\n    }\n\n    function inserirAluno(uint id, string memory nome, address wallet) onlyOwner public override {\n        require(Academic(_academicContractAddr).etapa() == Periodo.INSCRICAO_ALUNOS, \"Fora do periodo de inscricao de aluno\");\n        require(bytes(getAlunoById(id).nome).length == 0, \"Aluno ja existe\");\n        require(bytes(nome).length != 0, \"Nome nao pode estar vazio\");\n        require(wallet != address(0), \"Endereco da carteira nao pode ser vazio\");\n\n        alunoById[id] = Aluno(id, nome, wallet);\n        AcademicToken(_academicTokenAddr).transferFrom(owner, wallet, 1 * 10 ** 18);\n    }\n}",
  "sourcePath": "/home/fxavier/cefet-rj/blck-2022.2/BlockChainCEFET/frontend/academic_dapp/contracts/AlunoContract.sol",
  "compiler": {
    "name": "solc",
    "version": "0.8.17+commit.8df45f5f.Emscripten.clang"
  },
  "schemaVersion": "3.4.11",
  "updatedAt": "2022-12-22T17:47:17.806Z",
  "networkType": "ethereum",
  "devdoc": {
    "kind": "dev",
    "methods": {},
    "version": 1
  },
  "userdoc": {
    "kind": "user",
    "methods": {},
    "version": 1
  }
}