{
  "contractName": "DisciplinaContract",
  "abi": [
    {
      "inputs": [
        {
          "internalType": "address",
          "name": "academicContractAddr",
          "type": "address"
        }
      ],
      "stateMutability": "nonpayable",
      "type": "constructor"
    },
    {
      "inputs": [
        {
          "internalType": "uint256",
          "name": "id",
          "type": "uint256"
        }
      ],
      "name": "getDisciplinaById",
      "outputs": [
        {
          "components": [
            {
              "internalType": "uint256",
              "name": "id",
              "type": "uint256"
            },
            {
              "internalType": "string",
              "name": "nome",
              "type": "string"
            },
            {
              "internalType": "address",
              "name": "professor",
              "type": "address"
            }
          ],
          "internalType": "struct Disciplina",
          "name": "",
          "type": "tuple"
        }
      ],
      "stateMutability": "view",
      "type": "function",
      "constant": true
    },
    {
      "inputs": [
        {
          "internalType": "uint256",
          "name": "id",
          "type": "uint256"
        },
        {
          "internalType": "string",
          "name": "nome",
          "type": "string"
        },
        {
          "internalType": "address",
          "name": "professor",
          "type": "address"
        }
      ],
      "name": "inserirDisciplina",
      "outputs": [],
      "stateMutability": "nonpayable",
      "type": "function"
    }
  ],
  "bytecode": "0x608060405234801561001057600080fd5b506040516106fa3803806106fa83398101604081905261002f9161005d565b600280546001600160a01b039092166001600160a01b0319928316179055600180549091163317905561008d565b60006020828403121561006f57600080fd5b81516001600160a01b038116811461008657600080fd5b9392505050565b61065e8061009c6000396000f3fe608060405234801561001057600080fd5b50600436106100365760003560e01c80631300867b1461003b578063f6847b5b14610050575b600080fd5b61004e610049366004610386565b610079565b005b61006361005e366004610451565b610259565b604051610070919061046a565b60405180910390f35b6001546001600160a01b031633146100c95760405162461bcd60e51b815260206004820152600e60248201526d4e616f206175746f72697a61646f60901b60448201526064015b60405180910390fd5b6001600160a01b0381166101305760405162461bcd60e51b815260206004820152602860248201527f456e64657265636f20646f2070726f666573736f72206e616f20706f6465207360448201526765722076617a696f60c01b60648201526084016100c0565b81516000036101815760405162461bcd60e51b815260206004820152601960248201527f4e6f6d65206e616f20706f64652065737461722076617a696f0000000000000060448201526064016100c0565b6000838152602081905260409020600101805461019d906104df565b1590506101e35760405162461bcd60e51b81526020600482015260146024820152734469736369706c696e61206a612065786973746560601b60448201526064016100c0565b6040805160608101825284815260208082018581526001600160a01b03851683850152600087815291829052929020815181559151909190600182019061022a9082610568565b5060409190910151600290910180546001600160a01b0319166001600160a01b03909216919091179055505050565b6102866040518060600160405280600081526020016060815260200160006001600160a01b031681525090565b600082815260208181526040918290208251606081019093528054835260018101805491928401916102b7906104df565b80601f01602080910402602001604051908101604052809291908181526020018280546102e3906104df565b80156103305780601f1061030557610100808354040283529160200191610330565b820191906000526020600020905b81548152906001019060200180831161031357829003601f168201915b5050509183525050600291909101546001600160a01b031660209091015292915050565b634e487b7160e01b600052604160045260246000fd5b80356001600160a01b038116811461038157600080fd5b919050565b60008060006060848603121561039b57600080fd5b83359250602084013567ffffffffffffffff808211156103ba57600080fd5b818601915086601f8301126103ce57600080fd5b8135818111156103e0576103e0610354565b604051601f8201601f19908116603f0116810190838211818310171561040857610408610354565b8160405282815289602084870101111561042157600080fd5b8260208601602083013760006020848301015280965050505050506104486040850161036a565b90509250925092565b60006020828403121561046357600080fd5b5035919050565b600060208083528351818401528084015160606040850152805180608086015260005b818110156104a95782810184015186820160a00152830161048d565b50600085820160a0015260408601516001600160a01b03811660608701529250601f01601f19169390930160a001949350505050565b600181811c908216806104f357607f821691505b60208210810361051357634e487b7160e01b600052602260045260246000fd5b50919050565b601f82111561056357600081815260208120601f850160051c810160208610156105405750805b601f850160051c820191505b8181101561055f5782815560010161054c565b5050505b505050565b815167ffffffffffffffff81111561058257610582610354565b6105968161059084546104df565b84610519565b602080601f8311600181146105cb57600084156105b35750858301515b600019600386901b1c1916600185901b17855561055f565b600085815260208120601f198616915b828110156105fa578886015182559484019460019091019084016105db565b50858210156106185787850151600019600388901b60f8161c191681555b5050505050600190811b0190555056fea2646970667358221220972518ffa4ac9cac8bc430dd22b2ce6385606b5187f73ef50a2af468af57afb964736f6c63430008110033",
  "immutableReferences": {},
  "source": "// SPDX-License-Identifier: GPL-3.0\r\n\r\npragma solidity >=0.7.0 <0.9.0;\r\n\r\nimport \"./AcademicTypes.sol\";\r\nimport \"./Academic.sol\";\r\nimport \"./IAlunoContract.sol\";\r\nimport \"./AcademicToken.sol\";\r\n\r\ncontract DisciplinaContract is IDisciplinaContract {\r\n\r\n    mapping(uint => Disciplina) disciplinaById;\r\n\r\n    address owner;\r\n\r\n    address private _academicContractAddr; \r\n\r\n    modifier onlyOwner(){\r\n        require(msg.sender == owner, \"Nao autorizado\");\r\n        _;\r\n    }\r\n\r\n    constructor(address academicContractAddr){\r\n        _academicContractAddr = academicContractAddr;\r\n        owner = msg.sender;\r\n    }\r\n\r\n    function getDisciplinaById(uint id) public view override returns (Disciplina memory){\r\n        return disciplinaById[id];\r\n    }\r\n\r\n    function inserirDisciplina(uint id, string memory nome, address professor) onlyOwner public override {\r\n        require(professor != address(0), \"Endereco do professor nao pode ser vazio\");\r\n        require(bytes(nome).length != 0, \"Nome nao pode estar vazio\");\r\n        require(bytes(disciplinaById[id].nome).length == 0, \"Disciplina ja existe\");\r\n\r\n        disciplinaById[id] = Disciplina(id, nome, professor);\r\n    }\r\n}",
  "sourcePath": "D:\\academic-dapp-master\\frontend\\academic_dapp\\contracts\\DisciplinaContract.sol",
  "compiler": {
    "name": "solc",
    "version": "0.8.17+commit.8df45f5f.Emscripten.clang"
  },
  "schemaVersion": "3.4.11",
  "updatedAt": "2022-12-21T14:30:30.302Z",
  "networkType": "ethereum",
  "devdoc": {
    "kind": "dev",
    "methods": {},
    "version": 1
  },
  "userdoc": {
    "kind": "user",
    "methods": {},
    "version": 1
  }
}