{
  "contractName": "AlunoContract",
  "abi": [
    {
      "inputs": [],
      "stateMutability": "nonpayable",
      "type": "constructor"
    },
    {
      "inputs": [
        {
          "internalType": "uint256",
          "name": "id",
          "type": "uint256"
        }
      ],
      "name": "getAlunoById",
      "outputs": [
        {
          "components": [
            {
              "internalType": "uint256",
              "name": "id",
              "type": "uint256"
            },
            {
              "internalType": "string",
              "name": "nome",
              "type": "string"
            }
          ],
          "internalType": "struct Aluno",
          "name": "",
          "type": "tuple"
        }
      ],
      "stateMutability": "view",
      "type": "function",
      "constant": true
    },
    {
      "inputs": [
        {
          "internalType": "uint256",
          "name": "id",
          "type": "uint256"
        },
        {
          "internalType": "string",
          "name": "nome",
          "type": "string"
        }
      ],
      "name": "inserirAluno",
      "outputs": [],
      "stateMutability": "nonpayable",
      "type": "function"
    }
  ],
  "bytecode": "0x608060405234801561001057600080fd5b506040516001600160601b03193360601b16602082015242603482015260029060540160408051601f198184030181529082905261004d91610148565b602060405180830381855afa15801561006a573d6000803e3d6000fd5b5050506040513d601f19601f8201168201806040525081019061008d9190610177565b600280546001600160a01b031916606092831c1781556040513390921b6001600160601b03191660208301524260348301529060540160408051601f19818403018152908290526100dd91610148565b602060405180830381855afa1580156100fa573d6000803e3d6000fd5b5050506040513d601f19601f8201168201806040525081019061011d9190610177565b6003805460609290921c6001600160a01b031992831617905560018054339216919091179055610190565b6000825160005b81811015610169576020818601810151858301520161014f565b506000920191825250919050565b60006020828403121561018957600080fd5b5051919050565b6106558061019f6000396000f3fe608060405234801561001057600080fd5b50600436106100365760003560e01c80630ffbb06c1461003b578063d204b1c214610064575b600080fd5b61004e61004936600461034e565b610079565b60405161005b9190610367565b60405180910390f35b6100776100723660046103dd565b610147565b005b6040805180820190915260008152606060208201526000828152602081815260409182902082518084019093528054835260018101805491928401916100be90610498565b80601f01602080910402602001604051908101604052809291908181526020018280546100ea90610498565b80156101375780601f1061010c57610100808354040283529160200191610137565b820191906000526020600020905b81548152906001019060200180831161011a57829003601f168201915b5050505050815250509050919050565b6001546001600160a01b031633146101975760405162461bcd60e51b815260206004820152600e60248201526d4e616f206175746f72697a61646f60901b60448201526064015b60405180910390fd5b6002546040805163077b233160e21b815290516000926001600160a01b031691631dec8cc49160048083019260209291908290030181865afa1580156101e1573d6000803e3d6000fd5b505050506040513d601f19601f8201168201806040525081019061020591906104e8565b6001811115610216576102166104d2565b146102715760405162461bcd60e51b815260206004820152602560248201527f466f726120646f20706572696f646f20646520696e7363726963616f20646520604482015264616c756e6f60d81b606482015260840161018e565b61027a82610079565b6020015151156102be5760405162461bcd60e51b815260206004820152600f60248201526e416c756e6f206a612065786973746560881b604482015260640161018e565b805160000361030f5760405162461bcd60e51b815260206004820152601960248201527f4e6f6d65206e616f20706f64652065737461722076617a696f00000000000000604482015260640161018e565b60408051808201825283815260208082018481526000868152918290529290208151815591519091906001820190610347908261055f565b5050505050565b60006020828403121561036057600080fd5b5035919050565b6000602080835283518184015280840151604080850152805180606086015260005b818110156103a557828101840151868201608001528301610389565b506000608082870101526080601f19601f830116860101935050505092915050565b634e487b7160e01b600052604160045260246000fd5b600080604083850312156103f057600080fd5b82359150602083013567ffffffffffffffff8082111561040f57600080fd5b818501915085601f83011261042357600080fd5b813581811115610435576104356103c7565b604051601f8201601f19908116603f0116810190838211818310171561045d5761045d6103c7565b8160405282815288602084870101111561047657600080fd5b8260208601602083013760006020848301015280955050505050509250929050565b600181811c908216806104ac57607f821691505b6020821081036104cc57634e487b7160e01b600052602260045260246000fd5b50919050565b634e487b7160e01b600052602160045260246000fd5b6000602082840312156104fa57600080fd5b81516002811061050957600080fd5b9392505050565b601f82111561055a57600081815260208120601f850160051c810160208610156105375750805b601f850160051c820191505b8181101561055657828155600101610543565b5050505b505050565b815167ffffffffffffffff811115610579576105796103c7565b61058d816105878454610498565b84610510565b602080601f8311600181146105c257600084156105aa5750858301515b600019600386901b1c1916600185901b178555610556565b600085815260208120601f198616915b828110156105f1578886015182559484019460019091019084016105d2565b508582101561060f5787850151600019600388901b60f8161c191681555b5050505050600190811b0190555056fea2646970667358221220389c91d635158dc63f86f0ae8ff49036faff5f083c12e9836698a903b354f12f64736f6c63430008110033",
  "immutableReferences": {},
  "source": "// SPDX-License-Identifier: GPL-3.0\n\npragma solidity >=0.7.0 <0.9.0;\n\nimport \"./AcademicTypes.sol\";\nimport \"./Academic.sol\";\nimport \"./IAlunoContract.sol\";\nimport \"./AcademicToken.sol\";\n\ncontract AlunoContract is IAlunoContract{\n\n    mapping(uint => Aluno) alunoById;\n\n    address owner;\n\n    address private _academicContractAddr; \n    address private _academicTokenAddr;\n\n    modifier onlyOwner(){\n        require(msg.sender == owner, \"Nao autorizado\");\n        _;\n    }\n\n    constructor(){\n        _academicContractAddr = address(bytes20(sha256(abi.encodePacked(msg.sender,block.timestamp))));\n        _academicTokenAddr = address(bytes20(sha256(abi.encodePacked(msg.sender,block.timestamp))));\n        owner = msg.sender;\n    }\n\n    function getAlunoById(uint id) public view override returns (Aluno memory){\n        return alunoById[id];\n    }\n\n    function inserirAluno(uint id, string memory nome) onlyOwner public override {\n        require(Academic(_academicContractAddr).etapa() == Periodo.INSCRICAO_ALUNOS, \"Fora do periodo de inscricao de aluno\");\n        require(bytes(getAlunoById(id).nome).length == 0, \"Aluno ja existe\");\n        require(bytes(nome).length != 0, \"Nome nao pode estar vazio\");\n        \n        alunoById[id] = Aluno(id, nome);\n        //AcademicToken(_academicTokenAddr).transfer(wallet, 1);\n    }\n}",
  "sourcePath": "/home/fxavier/cefet-rj/blck-2022.2/BlockChainCEFET/frontend/academic_dapp/contracts/AlunoContract.sol",
  "compiler": {
    "name": "solc",
    "version": "0.8.17+commit.8df45f5f.Emscripten.clang"
  },
  "schemaVersion": "3.4.11",
  "updatedAt": "2022-12-20T21:47:10.159Z",
  "networkType": "ethereum",
  "devdoc": {
    "kind": "dev",
    "methods": {},
    "version": 1
  },
  "userdoc": {
    "kind": "user",
    "methods": {},
    "version": 1
  }
}